{
  "contractName": "PollManager",
  "abi": [
    {
      "inputs": [],
      "payable": false,
      "stateMutability": "nonpayable",
      "type": "constructor"
    },
    {
      "constant": true,
      "inputs": [
        {
          "internalType": "uint256",
          "name": "",
          "type": "uint256"
        }
      ],
      "name": "polls",
      "outputs": [
        {
          "internalType": "uint256",
          "name": "id",
          "type": "uint256"
        },
        {
          "internalType": "uint256",
          "name": "rpId",
          "type": "uint256"
        },
        {
          "internalType": "uint256",
          "name": "issueId",
          "type": "uint256"
        },
        {
          "internalType": "uint256",
          "name": "pqId",
          "type": "uint256"
        },
        {
          "internalType": "string",
          "name": "poll_contract_address",
          "type": "string"
        },
        {
          "internalType": "uint256",
          "name": "state",
          "type": "uint256"
        },
        {
          "internalType": "string",
          "name": "deliverTimestamp",
          "type": "string"
        },
        {
          "internalType": "string",
          "name": "votingTimestamp",
          "type": "string"
        }
      ],
      "payable": false,
      "stateMutability": "view",
      "type": "function"
    },
    {
      "constant": false,
      "inputs": [
        {
          "internalType": "uint256",
          "name": "_rpId",
          "type": "uint256"
        },
        {
          "internalType": "uint256",
          "name": "_issueId",
          "type": "uint256"
        },
        {
          "internalType": "uint256",
          "name": "_pqId",
          "type": "uint256"
        },
        {
          "internalType": "string",
          "name": "addr",
          "type": "string"
        },
        {
          "internalType": "string",
          "name": "_deliverTimestamp",
          "type": "string"
        },
        {
          "internalType": "string",
          "name": "_votingTimestamp",
          "type": "string"
        }
      ],
      "name": "addPoll",
      "outputs": [],
      "payable": false,
      "stateMutability": "nonpayable",
      "type": "function"
    },
    {
      "constant": false,
      "inputs": [
        {
          "internalType": "uint256",
          "name": "index",
          "type": "uint256"
        }
      ],
      "name": "closePoll",
      "outputs": [],
      "payable": false,
      "stateMutability": "nonpayable",
      "type": "function"
    },
    {
      "constant": true,
      "inputs": [],
      "name": "getPollsLength",
      "outputs": [
        {
          "internalType": "uint256",
          "name": "",
          "type": "uint256"
        }
      ],
      "payable": false,
      "stateMutability": "view",
      "type": "function"
    },
    {
      "constant": true,
      "inputs": [],
      "name": "helloWorld",
      "outputs": [
        {
          "internalType": "string",
          "name": "",
          "type": "string"
        }
      ],
      "payable": false,
      "stateMutability": "pure",
      "type": "function"
    }
  ],
  "bytecode": "0x608060405234801561001057600080fd5b506000604051806101000160405280600081526020016000815260200160008152602001600081526020016040518060400160405280600381526020017f30783000000000000000000000000000000000000000000000000000000000008152508152602001600081526020016040518060200160405280600081525081526020016040518060200160405280600081525081525090806001815401808255809150509060018203906000526020600020906008020160009091929091909150600082015181600001556020820151816001015560408201518160020155606082015181600301556080820151816004019080519060200190610114929190610161565b5060a0820151816005015560c082015181600601908051906020019061013b929190610161565b5060e0820151816007019080519060200190610158929190610161565b50505050610206565b828054600181600116156101000203166002900490600052602060002090601f016020900481019282601f106101a257805160ff19168380011785556101d0565b828001600101855582156101d0579182015b828111156101cf5782518255916020019190600101906101b4565b5b5090506101dd91906101e1565b5090565b61020391905b808211156101ff5760008160009055506001016101e7565b5090565b90565b61093b806102156000396000f3fe608060405234801561001057600080fd5b50600436106100575760003560e01c80639534e6371461005c578063ac2f00741461008a578063c605f76c1461022c578063d4f0ca1f146102af578063e91d26ff146102cd575b600080fd5b6100886004803603602081101561007257600080fd5b81019080803590602001909291905050506104d4565b005b6100b6600480360360208110156100a057600080fd5b81019080803590602001909291905050506104fa565b60405180898152602001888152602001878152602001868152602001806020018581526020018060200180602001848103845288818151815260200191508051906020019080838360005b8381101561011c578082015181840152602081019050610101565b50505050905090810190601f1680156101495780820380516001836020036101000a031916815260200191505b50848103835286818151815260200191508051906020019080838360005b83811015610182578082015181840152602081019050610167565b50505050905090810190601f1680156101af5780820380516001836020036101000a031916815260200191505b50848103825285818151815260200191508051906020019080838360005b838110156101e85780820151818401526020810190506101cd565b50505050905090810190601f1680156102155780820380516001836020036101000a031916815260200191505b509b50505050505050505050505060405180910390f35b610234610717565b6040518080602001828103825283818151815260200191508051906020019080838360005b83811015610274578082015181840152602081019050610259565b50505050905090810190601f1680156102a15780820380516001836020036101000a031916815260200191505b509250505060405180910390f35b6102b7610754565b6040518082815260200191505060405180910390f35b6104d2600480360360c08110156102e357600080fd5b810190808035906020019092919080359060200190929190803590602001909291908035906020019064010000000081111561031e57600080fd5b82018360208201111561033057600080fd5b8035906020019184600183028401116401000000008311171561035257600080fd5b91908080601f016020809104026020016040519081016040528093929190818152602001838380828437600081840152601f19601f820116905080830192505050505050509192919290803590602001906401000000008111156103b557600080fd5b8201836020820111156103c757600080fd5b803590602001918460018302840111640100000000831117156103e957600080fd5b91908080601f016020809104026020016040519081016040528093929190818152602001838380828437600081840152601f19601f8201169050808301925050505050505091929192908035906020019064010000000081111561044c57600080fd5b82018360208201111561045e57600080fd5b8035906020019184600183028401116401000000008311171561048057600080fd5b91908080601f016020809104026020016040519081016040528093929190818152602001838380828437600081840152601f19601f820116905080830192505050505050509192919290505050610760565b005b60008082815481106104e257fe5b90600052602060002090600802016005018190555050565b6000818154811061050757fe5b9060005260206000209060080201600091509050806000015490806001015490806002015490806003015490806004018054600181600116156101000203166002900480601f0160208091040260200160405190810160405280929190818152602001828054600181600116156101000203166002900480156105cb5780601f106105a0576101008083540402835291602001916105cb565b820191906000526020600020905b8154815290600101906020018083116105ae57829003601f168201915b505050505090806005015490806006018054600181600116156101000203166002900480601f01602080910402602001604051908101604052809291908181526020018280546001816001161561010002031660029004801561066f5780601f106106445761010080835404028352916020019161066f565b820191906000526020600020905b81548152906001019060200180831161065257829003601f168201915b505050505090806007018054600181600116156101000203166002900480601f01602080910402602001604051908101604052809291908181526020018280546001816001161561010002031660029004801561070d5780601f106106e25761010080835404028352916020019161070d565b820191906000526020600020905b8154815290600101906020018083116106f057829003601f168201915b5050505050905088565b60606040518060400160405280601081526020017f564f54453a2048616c6c6f204e69636f00000000000000000000000000000000815250905090565b60008080549050905090565b60006040518061010001604052806000805490508152602001888152602001878152602001868152602001858152602001600181526020018481526020018381525090806001815401808255809150509060018203906000526020600020906008020160009091929091909150600082015181600001556020820151816001015560408201518160020155606082015181600301556080820151816004019080519060200190610811929190610861565b5060a0820151816005015560c0820151816006019080519060200190610838929190610861565b5060e0820151816007019080519060200190610855929190610861565b50505050505050505050565b828054600181600116156101000203166002900490600052602060002090601f016020900481019282601f106108a257805160ff19168380011785556108d0565b828001600101855582156108d0579182015b828111156108cf5782518255916020019190600101906108b4565b5b5090506108dd91906108e1565b5090565b61090391905b808211156108ff5760008160009055506001016108e7565b5090565b9056fea265627a7a723158206d4310c732a58627a9d55177cb24ca1a315776179c19dbdcffa2e29b3aaf806f64736f6c63430005100032",
  "source": "pragma solidity >=0.4.22 <0.8.0;\n\ncontract PollManager {\n    struct Poll {\n        uint256 id;\n        uint256 rpId;\n        uint256 issueId;\n        uint256 pqId;\n        string poll_contract_address;\n        uint256 state;\n        string deliverTimestamp;\n        string votingTimestamp;\n    }\n\n    Poll[] public polls;\n\n    constructor() public {\n        polls.push(Poll({id: 0, rpId: 0, issueId: 0, pqId: 0, poll_contract_address: \"0x0\", state: 0, deliverTimestamp: \"\", votingTimestamp: \"\"}));\n    }\n\n    function addPoll(uint256 _rpId, uint256 _issueId, uint256 _pqId,  string memory addr, string memory _deliverTimestamp, string memory _votingTimestamp) public {\n        polls.push(Poll({id: polls.length, rpId: _rpId, issueId: _issueId, pqId: _pqId, poll_contract_address: addr, state: 1, deliverTimestamp: _deliverTimestamp, votingTimestamp: _votingTimestamp}));\n    }\n\n    function closePoll(uint256 index) public {\n        polls[index].state = 0;\n    }\n\n    function getPollsLength() public view returns (uint256) {\n        return polls.length;\n    }\n\n    function helloWorld() public pure returns (string memory) {\n        return \"VOTE: Hallo Nico\";\n    }\n}\n",
  "sourcePath": "/Users/michaelfrank/Documents/GitHub/github-blockchain-voting-extension/proof_of_concepts/base_blockchain_extension_interactions/contracts/PollManager.sol",
  "compiler": {
    "name": "solc",
    "version": "0.5.16+commit.9c3226ce.Emscripten.clang"
  },
  "schemaVersion": "3.2.4",
  "updatedAt": "2021-02-01T21:23:45.700Z",
  "networkType": "ethereum",
  "devdoc": {
    "methods": {}
  },
  "userdoc": {
    "methods": {}
  }
}