{
  "contractName": "Poll",
  "abi": [
    {
      "inputs": [
        {
          "internalType": "string",
          "name": "_timestamp",
          "type": "string"
        }
      ],
      "payable": false,
      "stateMutability": "nonpayable",
      "type": "constructor"
    },
    {
      "constant": true,
      "inputs": [
        {
          "internalType": "uint256",
          "name": "",
          "type": "uint256"
        }
      ],
      "name": "votes",
      "outputs": [
        {
          "internalType": "uint256",
          "name": "id",
          "type": "uint256"
        },
        {
          "internalType": "bool",
          "name": "decision",
          "type": "bool"
        },
        {
          "internalType": "address",
          "name": "delegate",
          "type": "address"
        },
        {
          "internalType": "uint256",
          "name": "weight",
          "type": "uint256"
        }
      ],
      "payable": false,
      "stateMutability": "view",
      "type": "function"
    },
    {
      "constant": false,
      "inputs": [
        {
          "internalType": "bool",
          "name": "desc",
          "type": "bool"
        },
        {
          "internalType": "uint256",
          "name": "value",
          "type": "uint256"
        },
        {
          "internalType": "address",
          "name": "addr",
          "type": "address"
        }
      ],
      "name": "vote",
      "outputs": [],
      "payable": true,
      "stateMutability": "payable",
      "type": "function"
    },
    {
      "constant": true,
      "inputs": [],
      "name": "getVotesLength",
      "outputs": [
        {
          "internalType": "uint256",
          "name": "",
          "type": "uint256"
        }
      ],
      "payable": false,
      "stateMutability": "view",
      "type": "function"
    }
  ],
  "bytecode": "0x608060405234801561001057600080fd5b506040516105a53803806105a58339818101604052602081101561003357600080fd5b810190808051604051939291908464010000000082111561005357600080fd5b8382019150602082018581111561006957600080fd5b825186600182028301116401000000008211171561008657600080fd5b8083526020830192505050908051906020019080838360005b838110156100ba57808201518184015260208101905061009f565b50505050905090810190601f1680156100e75780820380516001836020036101000a031916815260200191505b506040525050508060019080519060200190610104929190610206565b5060006040518060800160405280600081526020016001151581526020017322a5206a65aaf639c4d446f29586f0c00e0f7fa973ffffffffffffffffffffffffffffffffffffffff1681526020016000815250908060018154018082558091505090600182039060005260206000209060030201600090919290919091506000820151816000015560208201518160010160006101000a81548160ff02191690831515021790555060408201518160010160016101000a81548173ffffffffffffffffffffffffffffffffffffffff021916908373ffffffffffffffffffffffffffffffffffffffff16021790555060608201518160020155505050506102ab565b828054600181600116156101000203166002900490600052602060002090601f016020900481019282601f1061024757805160ff1916838001178555610275565b82800160010185558215610275579182015b82811115610274578251825591602001919060010190610259565b5b5090506102829190610286565b5090565b6102a891905b808211156102a457600081600090555060010161028c565b5090565b90565b6102eb806102ba6000396000f3fe6080604052600436106100345760003560e01c8063267e6529146100395780635df813301461006457806361ebccfd146100f8575b600080fd5b34801561004557600080fd5b5061004e610152565b6040518082815260200191505060405180910390f35b34801561007057600080fd5b5061009d6004803603602081101561008757600080fd5b810190808035906020019092919050505061015e565b60405180858152602001841515151581526020018373ffffffffffffffffffffffffffffffffffffffff1673ffffffffffffffffffffffffffffffffffffffff16815260200182815260200194505050505060405180910390f35b6101506004803603606081101561010e57600080fd5b8101908080351515906020019092919080359060200190929190803573ffffffffffffffffffffffffffffffffffffffff1690602001909291905050506101c8565b005b60008080549050905090565b6000818154811061016b57fe5b90600052602060002090600302016000915090508060000154908060010160009054906101000a900460ff16908060010160019054906101000a900473ffffffffffffffffffffffffffffffffffffffff16908060020154905084565b60006040518060800160405280600080549050815260200185151581526020018373ffffffffffffffffffffffffffffffffffffffff16815260200184815250908060018154018082558091505090600182039060005260206000209060030201600090919290919091506000820151816000015560208201518160010160006101000a81548160ff02191690831515021790555060408201518160010160016101000a81548173ffffffffffffffffffffffffffffffffffffffff021916908373ffffffffffffffffffffffffffffffffffffffff1602179055506060820151816002015550505050505056fea265627a7a7231582047efb05494c86501ce8e37199ed1a4772148dd68e3354f1c5e7c6a02160debad64736f6c63430005100032",
  "source": "pragma solidity >=0.4.22 <0.8.0;\n\ncontract Poll {\n\n    struct Vote {\n        uint256 id;\n        bool decision;\n        address delegate;\n        uint256 weight;\n    }\n\n    Vote[] public votes;\n    string timestamp;\n\n    constructor(string memory _timestamp) public {\n        timestamp = _timestamp;\n\n        votes.push(\n            Vote({\n                id: 0,\n                decision: true,\n                delegate: 0x22A5206a65Aaf639C4d446F29586F0c00e0F7Fa9,\n                weight: 0\n            })\n        );\n    }\n\n    function vote(bool desc, uint256 value, address addr) public payable {\n        votes.push(\n            Vote({\n                id: votes.length,\n                decision: desc,\n                delegate: addr,\n                weight: value\n            })\n        );\n    }\n\n    function getVotesLength() public view returns (uint256) {\n        return votes.length;\n    }\n}\n",
  "sourcePath": "/Users/michaelfrank/Documents/GitHub/github-blockchain-voting-extension/proof_of_concepts/base_blockchain_extension_interactions/contracts/Poll.sol",
  "compiler": {
    "name": "solc",
    "version": "0.5.16+commit.9c3226ce.Emscripten.clang"
  },
  "schemaVersion": "3.2.4",
  "updatedAt": "2020-12-20T00:19:23.773Z",
  "devdoc": {
    "methods": {}
  },
  "userdoc": {
    "methods": {}
  }
}