{
  "contractName": "Poll",
  "abi": [
    {
      "inputs": [],
      "payable": false,
      "stateMutability": "nonpayable",
      "type": "constructor"
    },
    {
      "constant": true,
      "inputs": [
        {
          "internalType": "uint256",
          "name": "",
          "type": "uint256"
        }
      ],
      "name": "bounties",
      "outputs": [
        {
          "internalType": "address payable",
          "name": "staker",
          "type": "address"
        },
        {
          "internalType": "uint256",
          "name": "weight",
          "type": "uint256"
        }
      ],
      "payable": false,
      "stateMutability": "view",
      "type": "function"
    },
    {
      "constant": true,
      "inputs": [],
      "name": "bounty",
      "outputs": [
        {
          "internalType": "uint256",
          "name": "",
          "type": "uint256"
        }
      ],
      "payable": false,
      "stateMutability": "view",
      "type": "function"
    },
    {
      "constant": true,
      "inputs": [],
      "name": "claimerAddress",
      "outputs": [
        {
          "internalType": "address payable",
          "name": "",
          "type": "address"
        }
      ],
      "payable": false,
      "stateMutability": "view",
      "type": "function"
    },
    {
      "constant": true,
      "inputs": [],
      "name": "claimerName",
      "outputs": [
        {
          "internalType": "string",
          "name": "",
          "type": "string"
        }
      ],
      "payable": false,
      "stateMutability": "view",
      "type": "function"
    },
    {
      "constant": true,
      "inputs": [],
      "name": "collateral",
      "outputs": [
        {
          "internalType": "uint256",
          "name": "",
          "type": "uint256"
        }
      ],
      "payable": false,
      "stateMutability": "view",
      "type": "function"
    },
    {
      "constant": true,
      "inputs": [
        {
          "internalType": "uint256",
          "name": "",
          "type": "uint256"
        }
      ],
      "name": "votes",
      "outputs": [
        {
          "internalType": "uint256",
          "name": "id",
          "type": "uint256"
        },
        {
          "internalType": "bool",
          "name": "decision",
          "type": "bool"
        },
        {
          "internalType": "address payable",
          "name": "delegate",
          "type": "address"
        },
        {
          "internalType": "uint256",
          "name": "weight",
          "type": "uint256"
        }
      ],
      "payable": false,
      "stateMutability": "view",
      "type": "function"
    },
    {
      "constant": false,
      "inputs": [
        {
          "internalType": "bool",
          "name": "desc",
          "type": "bool"
        },
        {
          "internalType": "uint256",
          "name": "value",
          "type": "uint256"
        },
        {
          "internalType": "address payable",
          "name": "addr",
          "type": "address"
        }
      ],
      "name": "vote",
      "outputs": [],
      "payable": true,
      "stateMutability": "payable",
      "type": "function"
    },
    {
      "constant": false,
      "inputs": [
        {
          "internalType": "uint256",
          "name": "index",
          "type": "uint256"
        },
        {
          "internalType": "uint256",
          "name": "stake",
          "type": "uint256"
        }
      ],
      "name": "transferStakes",
      "outputs": [],
      "payable": true,
      "stateMutability": "payable",
      "type": "function"
    },
    {
      "constant": false,
      "inputs": [
        {
          "internalType": "address payable",
          "name": "addr",
          "type": "address"
        },
        {
          "internalType": "uint256",
          "name": "value",
          "type": "uint256"
        }
      ],
      "name": "addBounty",
      "outputs": [],
      "payable": true,
      "stateMutability": "payable",
      "type": "function"
    },
    {
      "constant": false,
      "inputs": [
        {
          "internalType": "address payable",
          "name": "addr",
          "type": "address"
        },
        {
          "internalType": "string",
          "name": "name",
          "type": "string"
        },
        {
          "internalType": "uint256",
          "name": "value",
          "type": "uint256"
        }
      ],
      "name": "claimIssue",
      "outputs": [],
      "payable": true,
      "stateMutability": "payable",
      "type": "function"
    },
    {
      "constant": false,
      "inputs": [],
      "name": "resetClaim",
      "outputs": [],
      "payable": false,
      "stateMutability": "nonpayable",
      "type": "function"
    },
    {
      "constant": true,
      "inputs": [],
      "name": "getVotesLength",
      "outputs": [
        {
          "internalType": "uint256",
          "name": "",
          "type": "uint256"
        }
      ],
      "payable": false,
      "stateMutability": "view",
      "type": "function"
    },
    {
      "constant": true,
      "inputs": [],
      "name": "getBountiesLength",
      "outputs": [
        {
          "internalType": "uint256",
          "name": "",
          "type": "uint256"
        }
      ],
      "payable": false,
      "stateMutability": "view",
      "type": "function"
    }
  ],
  "bytecode": "0x6080604052600060025560006003556040518060200160405280600081525060049080519060200190610033929190610257565b507328cfba097ff9bb9d904471c493b032df45b9f953600560006101000a81548173ffffffffffffffffffffffffffffffffffffffff021916908373ffffffffffffffffffffffffffffffffffffffff16021790555034801561009557600080fd5b50600160405180604001604052807328cfba097ff9bb9d904471c493b032df45b9f95373ffffffffffffffffffffffffffffffffffffffff16815260200160008152509080600181540180825580915050906001820390600052602060002090600202016000909192909190915060008201518160000160006101000a81548173ffffffffffffffffffffffffffffffffffffffff021916908373ffffffffffffffffffffffffffffffffffffffff1602179055506020820151816001015550505060006040518060800160405280600081526020016001151581526020017328cfba097ff9bb9d904471c493b032df45b9f95373ffffffffffffffffffffffffffffffffffffffff1681526020016000815250908060018154018082558091505090600182039060005260206000209060030201600090919290919091506000820151816000015560208201518160010160006101000a81548160ff02191690831515021790555060408201518160010160016101000a81548173ffffffffffffffffffffffffffffffffffffffff021916908373ffffffffffffffffffffffffffffffffffffffff160217905550606082015181600201555050506102fc565b828054600181600116156101000203166002900490600052602060002090601f016020900481019282601f1061029857805160ff19168380011785556102c6565b828001600101855582156102c6579182015b828111156102c55782518255916020019190600101906102aa565b5b5090506102d391906102d7565b5090565b6102f991905b808211156102f55760008160009055506001016102dd565b5090565b90565b610af28061030b6000396000f3fe6080604052600436106100c25760003560e01c80636a7300c51161007f578063d8dfeb4511610059578063d8dfeb451461038f578063dc2f8744146103ba578063e8c35c721461043c578063ec9a01fe14610521576100c2565b80636a7300c514610286578063899a1e3614610316578063943dfef114610364576100c2565b8063267e6529146100c7578063553ea3e9146100f25780635ab77cb3146101095780635df813301461014157806361ebccfd146101d557806365b768fa1461022f575b600080fd5b3480156100d357600080fd5b506100dc61054c565b6040518082815260200191505060405180910390f35b3480156100fe57600080fd5b50610107610558565b005b61013f6004803603604081101561011f57600080fd5b8101908080359060200190929190803590602001909291905050506105ea565b005b34801561014d57600080fd5b5061017a6004803603602081101561016457600080fd5b8101908080359060200190929190505050610673565b60405180858152602001841515151581526020018373ffffffffffffffffffffffffffffffffffffffff1673ffffffffffffffffffffffffffffffffffffffff16815260200182815260200194505050505060405180910390f35b61022d600480360360608110156101eb57600080fd5b8101908080351515906020019092919080359060200190929190803573ffffffffffffffffffffffffffffffffffffffff1690602001909291905050506106dd565b005b34801561023b57600080fd5b506102446107cb565b604051808273ffffffffffffffffffffffffffffffffffffffff1673ffffffffffffffffffffffffffffffffffffffff16815260200191505060405180910390f35b34801561029257600080fd5b5061029b6107f1565b6040518080602001828103825283818151815260200191508051906020019080838360005b838110156102db5780820151818401526020810190506102c0565b50505050905090810190601f1680156103085780820380516001836020036101000a031916815260200191505b509250505060405180910390f35b6103626004803603604081101561032c57600080fd5b81019080803573ffffffffffffffffffffffffffffffffffffffff1690602001909291908035906020019092919050505061088f565b005b34801561037057600080fd5b5061037961094a565b6040518082815260200191505060405180910390f35b34801561039b57600080fd5b506103a4610950565b6040518082815260200191505060405180910390f35b3480156103c657600080fd5b506103f3600480360360208110156103dd57600080fd5b8101908080359060200190929190505050610956565b604051808373ffffffffffffffffffffffffffffffffffffffff1673ffffffffffffffffffffffffffffffffffffffff1681526020018281526020019250505060405180910390f35b61051f6004803603606081101561045257600080fd5b81019080803573ffffffffffffffffffffffffffffffffffffffff1690602001909291908035906020019064010000000081111561048f57600080fd5b8201836020820111156104a157600080fd5b803590602001918460018302840111640100000000831117156104c357600080fd5b91908080601f016020809104026020016040519081016040528093929190818152602001838380828437600081840152601f19601f820116905080830192505050505050509192919290803590602001909291905050506109a7565b005b34801561052d57600080fd5b50610536610a0b565b6040518082815260200191505060405180910390f35b60008080549050905090565b6003546002540160028190555060006003819055506040518060200160405280600081525060049080519060200190610592929190610a18565b507328cfba097ff9bb9d904471c493b032df45b9f953600560006101000a81548173ffffffffffffffffffffffffffffffffffffffff021916908373ffffffffffffffffffffffffffffffffffffffff160217905550565b600082815481106105f757fe5b906000526020600020906003020160010160019054906101000a900473ffffffffffffffffffffffffffffffffffffffff1673ffffffffffffffffffffffffffffffffffffffff166108fc829081150290604051600060405180830381858888f1935050505015801561066e573d6000803e3d6000fd5b505050565b6000818154811061068057fe5b90600052602060002090600302016000915090508060000154908060010160009054906101000a900460ff16908060010160019054906101000a900473ffffffffffffffffffffffffffffffffffffffff16908060020154905084565b60006040518060800160405280600080549050815260200185151581526020018373ffffffffffffffffffffffffffffffffffffffff16815260200184815250908060018154018082558091505090600182039060005260206000209060030201600090919290919091506000820151816000015560208201518160010160006101000a81548160ff02191690831515021790555060408201518160010160016101000a81548173ffffffffffffffffffffffffffffffffffffffff021916908373ffffffffffffffffffffffffffffffffffffffff16021790555060608201518160020155505050505050565b600560009054906101000a900473ffffffffffffffffffffffffffffffffffffffff1681565b60048054600181600116156101000203166002900480601f0160208091040260200160405190810160405280929190818152602001828054600181600116156101000203166002900480156108875780601f1061085c57610100808354040283529160200191610887565b820191906000526020600020905b81548152906001019060200180831161086a57829003601f168201915b505050505081565b600160405180604001604052808473ffffffffffffffffffffffffffffffffffffffff168152602001838152509080600181540180825580915050906001820390600052602060002090600202016000909192909190915060008201518160000160006101000a81548173ffffffffffffffffffffffffffffffffffffffff021916908373ffffffffffffffffffffffffffffffffffffffff1602179055506020820151816001015550505080600254016002819055505050565b60025481565b60035481565b6001818154811061096357fe5b90600052602060002090600202016000915090508060000160009054906101000a900473ffffffffffffffffffffffffffffffffffffffff16908060010154905082565b8060038190555081600490805190602001906109c4929190610a18565b5082600560006101000a81548173ffffffffffffffffffffffffffffffffffffffff021916908373ffffffffffffffffffffffffffffffffffffffff160217905550505050565b6000600180549050905090565b828054600181600116156101000203166002900490600052602060002090601f016020900481019282601f10610a5957805160ff1916838001178555610a87565b82800160010185558215610a87579182015b82811115610a86578251825591602001919060010190610a6b565b5b509050610a949190610a98565b5090565b610aba91905b80821115610ab6576000816000905550600101610a9e565b5090565b9056fea265627a7a7231582029536234f2c70ab3ef4b7fe6424a154624a7473793f5413a1d07163660af699764736f6c63430005100032",
  "source": "pragma solidity >=0.4.22 <0.8.0;\n\ncontract Poll {\n    /* struct Claimer {\n        address payable claimer;\n        string username;\n        uint256 weight;\n    } */\n\n    struct Vote {\n        uint256 id;\n        bool decision;\n        address payable delegate;\n        uint256 weight;\n    }\n\n    struct Bounty {\n        address payable staker;\n        uint256 weight;\n    }\n\n    //Claimer public claimer;\n    Vote[] public votes;\n    Bounty[] public bounties;\n    \n    uint256 public bounty = 0;\n    uint256 public collateral = 0;\n    string public claimerName = \"\";\n    address payable public claimerAddress = 0x28CfbA097FF9bb9D904471c493b032Df45B9f953;\n\n    constructor() public {\n        bounties.push(\n            Bounty({\n                staker: 0x28CfbA097FF9bb9D904471c493b032Df45B9f953,\n                weight: 0\n            })\n        );\n\n        votes.push(\n            Vote({\n                id: 0,\n                decision: true,\n                delegate: 0x28CfbA097FF9bb9D904471c493b032Df45B9f953,\n                weight: 0\n            })\n        );\n    }\n\n    function vote(\n        bool desc,\n        uint256 value,\n        address payable addr\n    ) public payable {\n        votes.push(\n            Vote({\n                id: votes.length,\n                decision: desc,\n                delegate: addr,\n                weight: value\n            })\n        );\n    }\n\n    function transferStakes(uint256 index, uint256 stake) public payable {\n        votes[index].delegate.transfer(stake);\n    }\n\n    function addBounty(address payable addr, uint256 value) public payable {\n        bounties.push(Bounty({staker: addr, weight: value}));\n        bounty = bounty + value;\n    }\n\n    function claimIssue(address payable addr, string memory name, uint256 value) public payable {\n        collateral = value;\n        claimerName = name;\n        claimerAddress = addr;\n    }\n\n    function resetClaim() public {\n        bounty = bounty + collateral;\n        collateral = 0;\n        claimerName = \"\";\n        claimerAddress = 0x28CfbA097FF9bb9D904471c493b032Df45B9f953;\n    }\n\n    function getVotesLength() public view returns (uint256) {\n        return votes.length;\n    }\n\n    function getBountiesLength() public view returns (uint256) {\n        return bounties.length;\n    }\n}\n",
  "sourcePath": "/Users/michaelfrank/Documents/GitHub/github-blockchain-voting-extension/proof_of_concepts/base_blockchain_extension_interactions/contracts/Poll.sol",
  "compiler": {
    "name": "solc",
    "version": "0.5.16+commit.9c3226ce.Emscripten.clang"
  },
  "schemaVersion": "3.2.4",
  "updatedAt": "2021-02-05T16:28:06.661Z",
  "networkType": "ethereum",
  "devdoc": {
    "methods": {}
  },
  "userdoc": {
    "methods": {}
  }
}