{
  "contractName": "PollManager",
  "abi": [
    {
      "inputs": [],
      "payable": false,
      "stateMutability": "nonpayable",
      "type": "constructor"
    },
    {
      "constant": true,
      "inputs": [
        {
          "internalType": "uint256",
          "name": "",
          "type": "uint256"
        }
      ],
      "name": "polls",
      "outputs": [
        {
          "internalType": "uint256",
          "name": "id",
          "type": "uint256"
        },
        {
          "internalType": "string",
          "name": "poll_contract_address",
          "type": "string"
        },
        {
          "internalType": "bool",
          "name": "open",
          "type": "bool"
        }
      ],
      "payable": false,
      "stateMutability": "view",
      "type": "function"
    },
    {
      "constant": false,
      "inputs": [
        {
          "internalType": "string",
          "name": "addr",
          "type": "string"
        }
      ],
      "name": "addPoll",
      "outputs": [],
      "payable": false,
      "stateMutability": "nonpayable",
      "type": "function"
    },
    {
      "constant": true,
      "inputs": [],
      "name": "getPollsLength",
      "outputs": [
        {
          "internalType": "uint256",
          "name": "",
          "type": "uint256"
        }
      ],
      "payable": false,
      "stateMutability": "view",
      "type": "function"
    },
    {
      "constant": true,
      "inputs": [],
      "name": "helloWorld",
      "outputs": [
        {
          "internalType": "string",
          "name": "",
          "type": "string"
        }
      ],
      "payable": false,
      "stateMutability": "pure",
      "type": "function"
    }
  ],
  "bytecode": "0x608060405234801561001057600080fd5b5060006040518060600160405280600081526020016040518060400160405280600381526020017f3078300000000000000000000000000000000000000000000000000000000000815250815260200160001515815250908060018154018082558091505090600182039060005260206000209060030201600090919290919091506000820151816000015560208201518160010190805190602001906100b89291906100e1565b5060408201518160020160006101000a81548160ff021916908315150217905550505050610186565b828054600181600116156101000203166002900490600052602060002090601f016020900481019282601f1061012257805160ff1916838001178555610150565b82800160010185558215610150579182015b8281111561014f578251825591602001919060010190610134565b5b50905061015d9190610161565b5090565b61018391905b8082111561017f576000816000905550600101610167565b5090565b90565b610502806101956000396000f3fe608060405234801561001057600080fd5b506004361061004c5760003560e01c80637c31407b14610051578063ac2f00741461010c578063c605f76c146101c5578063d4f0ca1f14610248575b600080fd5b61010a6004803603602081101561006757600080fd5b810190808035906020019064010000000081111561008457600080fd5b82018360208201111561009657600080fd5b803590602001918460018302840111640100000000831117156100b857600080fd5b91908080601f016020809104026020016040519081016040528093929190818152602001838380828437600081840152601f19601f820116905080830192505050505050509192919290505050610266565b005b6101386004803603602081101561012257600080fd5b8101908080359060200190929190505050610303565b604051808481526020018060200183151515158152602001828103825284818151815260200191508051906020019080838360005b8381101561018857808201518184015260208101905061016d565b50505050905090810190601f1680156101b55780820380516001836020036101000a031916815260200191505b5094505050505060405180910390f35b6101cd6103df565b6040518080602001828103825283818151815260200191508051906020019080838360005b8381101561020d5780820151818401526020810190506101f2565b50505050905090810190601f16801561023a5780820380516001836020036101000a031916815260200191505b509250505060405180910390f35b61025061041c565b6040518082815260200191505060405180910390f35b60006040518060600160405280600080549050815260200183815260200160001515815250908060018154018082558091505090600182039060005260206000209060030201600090919290919091506000820151816000015560208201518160010190805190602001906102dc929190610428565b5060408201518160020160006101000a81548160ff02191690831515021790555050505050565b6000818154811061031057fe5b9060005260206000209060030201600091509050806000015490806001018054600181600116156101000203166002900480601f0160208091040260200160405190810160405280929190818152602001828054600181600116156101000203166002900480156103c25780601f10610397576101008083540402835291602001916103c2565b820191906000526020600020905b8154815290600101906020018083116103a557829003601f168201915b5050505050908060020160009054906101000a900460ff16905083565b60606040518060400160405280601081526020017f564f54453a2048616c6c6f204e69636f00000000000000000000000000000000815250905090565b60008080549050905090565b828054600181600116156101000203166002900490600052602060002090601f016020900481019282601f1061046957805160ff1916838001178555610497565b82800160010185558215610497579182015b8281111561049657825182559160200191906001019061047b565b5b5090506104a491906104a8565b5090565b6104ca91905b808211156104c65760008160009055506001016104ae565b5090565b9056fea265627a7a723158203fccb4fbac235f9ab87d0a50e807bbbfdd7d2527b4489ce9a466b2831d51f37164736f6c63430005100032",
  "source": "pragma solidity >=0.4.22 <0.8.0;\n\ncontract PollManager {\n    struct Poll {\n        uint256 id;\n        string poll_contract_address;\n        bool open;\n    }\n\n    Poll[] public polls;\n\n    constructor() public {\n        polls.push(Poll({id: 0, poll_contract_address: \"0x0\", open: false}));\n    }\n\n    function addPoll(string memory addr) public {\n        polls.push(Poll({id: polls.length, poll_contract_address: addr, open: false}));\n    }\n\n    function getPollsLength() public view returns (uint256) {\n        return polls.length;\n    }\n\n    function helloWorld() public pure returns (string memory) {\n        return \"VOTE: Hallo Nico\";\n    }\n}\n",
  "sourcePath": "/Users/michaelfrank/Documents/GitHub/github-blockchain-voting-extension/proof_of_concepts/base_blockchain_extension_interactions/contracts/PollManager.sol",
  "compiler": {
    "name": "solc",
    "version": "0.5.16+commit.9c3226ce.Emscripten.clang"
  },
  "schemaVersion": "3.2.4",
  "updatedAt": "2020-12-27T15:09:06.402Z",
  "networkType": "ethereum",
  "devdoc": {
    "methods": {}
  },
  "userdoc": {
    "methods": {}
  }
}