{
  "contractName": "Voting",
  "abi": [
    {
      "inputs": [],
      "payable": false,
      "stateMutability": "nonpayable",
      "type": "constructor"
    },
    {
      "anonymous": false,
      "inputs": [
        {
          "indexed": true,
          "internalType": "address",
          "name": "_from",
          "type": "address"
        },
        {
          "indexed": true,
          "internalType": "uint256",
          "name": "_id",
          "type": "uint256"
        },
        {
          "indexed": false,
          "internalType": "uint256",
          "name": "_value",
          "type": "uint256"
        }
      ],
      "name": "Deposit",
      "type": "event"
    },
    {
      "anonymous": false,
      "inputs": [
        {
          "indexed": true,
          "internalType": "address",
          "name": "payee",
          "type": "address"
        },
        {
          "indexed": false,
          "internalType": "uint256",
          "name": "weiAmount",
          "type": "uint256"
        }
      ],
      "name": "Deposited",
      "type": "event"
    },
    {
      "anonymous": false,
      "inputs": [
        {
          "indexed": true,
          "internalType": "address",
          "name": "payee",
          "type": "address"
        },
        {
          "indexed": false,
          "internalType": "uint256",
          "name": "weiAmount",
          "type": "uint256"
        }
      ],
      "name": "Withdrawn",
      "type": "event"
    },
    {
      "constant": true,
      "inputs": [
        {
          "internalType": "uint256",
          "name": "",
          "type": "uint256"
        }
      ],
      "name": "polls",
      "outputs": [
        {
          "internalType": "uint256",
          "name": "id",
          "type": "uint256"
        },
        {
          "internalType": "uint256",
          "name": "rpId",
          "type": "uint256"
        },
        {
          "internalType": "uint256",
          "name": "pqId",
          "type": "uint256"
        },
        {
          "internalType": "string",
          "name": "pqLink",
          "type": "string"
        },
        {
          "internalType": "string",
          "name": "pqTitle",
          "type": "string"
        },
        {
          "internalType": "string",
          "name": "time",
          "type": "string"
        }
      ],
      "payable": false,
      "stateMutability": "view",
      "type": "function"
    },
    {
      "constant": true,
      "inputs": [
        {
          "internalType": "uint256",
          "name": "",
          "type": "uint256"
        }
      ],
      "name": "votes",
      "outputs": [
        {
          "internalType": "uint256",
          "name": "poll",
          "type": "uint256"
        },
        {
          "internalType": "bool",
          "name": "decision",
          "type": "bool"
        },
        {
          "internalType": "address",
          "name": "delegate",
          "type": "address"
        },
        {
          "internalType": "uint256",
          "name": "weight",
          "type": "uint256"
        }
      ],
      "payable": false,
      "stateMutability": "view",
      "type": "function"
    },
    {
      "constant": false,
      "inputs": [
        {
          "internalType": "uint256",
          "name": "_rpId",
          "type": "uint256"
        },
        {
          "internalType": "uint256",
          "name": "_pqId",
          "type": "uint256"
        },
        {
          "internalType": "string",
          "name": "_pqLink",
          "type": "string"
        },
        {
          "internalType": "string",
          "name": "_pqTitle",
          "type": "string"
        },
        {
          "internalType": "uint256",
          "name": "value",
          "type": "uint256"
        },
        {
          "internalType": "address",
          "name": "addr",
          "type": "address"
        }
      ],
      "name": "addNewPoll",
      "outputs": [],
      "payable": true,
      "stateMutability": "payable",
      "type": "function"
    },
    {
      "constant": false,
      "inputs": [
        {
          "internalType": "uint256",
          "name": "_pollId",
          "type": "uint256"
        },
        {
          "internalType": "bool",
          "name": "_decision",
          "type": "bool"
        },
        {
          "internalType": "uint256",
          "name": "value",
          "type": "uint256"
        },
        {
          "internalType": "address",
          "name": "addr",
          "type": "address"
        }
      ],
      "name": "vote",
      "outputs": [],
      "payable": true,
      "stateMutability": "payable",
      "type": "function"
    },
    {
      "constant": false,
      "inputs": [],
      "name": "deposit",
      "outputs": [],
      "payable": true,
      "stateMutability": "payable",
      "type": "function"
    },
    {
      "constant": false,
      "inputs": [],
      "name": "withdraw",
      "outputs": [],
      "payable": false,
      "stateMutability": "nonpayable",
      "type": "function"
    },
    {
      "constant": true,
      "inputs": [],
      "name": "getBalance",
      "outputs": [
        {
          "internalType": "uint256",
          "name": "",
          "type": "uint256"
        }
      ],
      "payable": false,
      "stateMutability": "view",
      "type": "function"
    },
    {
      "constant": true,
      "inputs": [],
      "name": "getVotesLength",
      "outputs": [
        {
          "internalType": "uint256",
          "name": "",
          "type": "uint256"
        }
      ],
      "payable": false,
      "stateMutability": "view",
      "type": "function"
    },
    {
      "constant": true,
      "inputs": [],
      "name": "getPollsLength",
      "outputs": [
        {
          "internalType": "uint256",
          "name": "",
          "type": "uint256"
        }
      ],
      "payable": false,
      "stateMutability": "view",
      "type": "function"
    },
    {
      "constant": true,
      "inputs": [],
      "name": "helloWorld",
      "outputs": [
        {
          "internalType": "string",
          "name": "",
          "type": "string"
        }
      ],
      "payable": false,
      "stateMutability": "pure",
      "type": "function"
    }
  ],
  "bytecode": "0x60806040523480156200001157600080fd5b5060006040518060c001604052806000815260200163042dc28a8152602001614d6781526020016040518060600160405280602c815260200162001094602c91398152602001604051806060016040528060238152602001620010c06023913981526020016040518060400160405280600c81526020017f32303230313231353137343500000000000000000000000000000000000000008152508152509080600181540180825580915050906001820390600052602060002090600602016000909192909190915060008201518160000155602082015181600101556040820151816002015560608201518160030190805190602001906200011692919062000259565b5060808201518160040190805190602001906200013592919062000259565b5060a08201518160050190805190602001906200015492919062000259565b5050505060016040518060800160405280600081526020016001151581526020017322a5206a65aaf639c4d446f29586f0c00e0f7fa973ffffffffffffffffffffffffffffffffffffffff168152602001600a815250908060018154018082558091505090600182039060005260206000209060030201600090919290919091506000820151816000015560208201518160010160006101000a81548160ff02191690831515021790555060408201518160010160016101000a81548173ffffffffffffffffffffffffffffffffffffffff021916908373ffffffffffffffffffffffffffffffffffffffff1602179055506060820151816002015550505062000308565b828054600181600116156101000203166002900490600052602060002090601f016020900481019282601f106200029c57805160ff1916838001178555620002cd565b82800160010185558215620002cd579182015b82811115620002cc578251825591602001919060010190620002af565b5b509050620002dc9190620002e0565b5090565b6200030591905b8082111562000301576000816000905550600101620002e7565b5090565b90565b610d7c80620003186000396000f3fe6080604052600436106100915760003560e01c8063ac2f007411610059578063ac2f007414610327578063c605f76c146104c8578063d0e30db014610558578063d4f0ca1f14610562578063eb47099d1461058d57610091565b806312065fe0146100965780631c895a2d146100c1578063267e6529146102515780633ccfd60b1461027c5780635df8133014610293575b600080fd5b3480156100a257600080fd5b506100ab6105f1565b6040518082815260200191505060405180910390f35b61024f600480360360c08110156100d757600080fd5b8101908080359060200190929190803590602001909291908035906020019064010000000081111561010857600080fd5b82018360208201111561011a57600080fd5b8035906020019184600183028401116401000000008311171561013c57600080fd5b91908080601f016020809104026020016040519081016040528093929190818152602001838380828437600081840152601f19601f8201169050808301925050505050505091929192908035906020019064010000000081111561019f57600080fd5b8201836020820111156101b157600080fd5b803590602001918460018302840111640100000000831117156101d357600080fd5b91908080601f016020809104026020016040519081016040528093929190818152602001838380828437600081840152601f19601f82011690508083019250505050505050919291929080359060200190929190803573ffffffffffffffffffffffffffffffffffffffff1690602001909291905050506105f9565b005b34801561025d57600080fd5b506102666107fa565b6040518082815260200191505060405180910390f35b34801561028857600080fd5b50610291610807565b005b34801561029f57600080fd5b506102cc600480360360208110156102b657600080fd5b81019080803590602001909291905050506108a4565b60405180858152602001841515151581526020018373ffffffffffffffffffffffffffffffffffffffff1673ffffffffffffffffffffffffffffffffffffffff16815260200182815260200194505050505060405180910390f35b34801561033357600080fd5b506103606004803603602081101561034a57600080fd5b810190808035906020019092919050505061090e565b60405180878152602001868152602001858152602001806020018060200180602001848103845287818151815260200191508051906020019080838360005b838110156103ba57808201518184015260208101905061039f565b50505050905090810190601f1680156103e75780820380516001836020036101000a031916815260200191505b50848103835286818151815260200191508051906020019080838360005b83811015610420578082015181840152602081019050610405565b50505050905090810190601f16801561044d5780820380516001836020036101000a031916815260200191505b50848103825285818151815260200191508051906020019080838360005b8381101561048657808201518184015260208101905061046b565b50505050905090810190601f1680156104b35780820380516001836020036101000a031916815260200191505b50995050505050505050505060405180910390f35b3480156104d457600080fd5b506104dd610b1f565b6040518080602001828103825283818151815260200191508051906020019080838360005b8381101561051d578082015181840152602081019050610502565b50505050905090810190601f16801561054a5780820380516001836020036101000a031916815260200191505b509250505060405180910390f35b610560610b5c565b005b34801561056e57600080fd5b50610577610bac565b6040518082815260200191505060405180910390f35b6105ef600480360360808110156105a357600080fd5b810190808035906020019092919080351515906020019092919080359060200190929190803573ffffffffffffffffffffffffffffffffffffffff169060200190929190505050610bb8565b005b600047905090565b60006040518060c0016040528060008054905081526020018881526020018781526020018681526020018581526020016040518060400160405280600c81526020017f32303230313231363134343500000000000000000000000000000000000000008152508152509080600181540180825580915050906001820390600052602060002090600602016000909192909190915060008201518160000155602082015181600101556040820151816002015560608201518160030190805190602001906106c7929190610ca2565b5060808201518160040190805190602001906106e4929190610ca2565b5060a0820151816005019080519060200190610701929190610ca2565b505050506001604051806080016040528060016000805490500381526020016001151581526020018373ffffffffffffffffffffffffffffffffffffffff16815260200184815250908060018154018082558091505090600182039060005260206000209060030201600090919290919091506000820151816000015560208201518160010160006101000a81548160ff02191690831515021790555060408201518160010160016101000a81548173ffffffffffffffffffffffffffffffffffffffff021916908373ffffffffffffffffffffffffffffffffffffffff16021790555060608201518160020155505050505050505050565b6000600180549050905090565b60004790503373ffffffffffffffffffffffffffffffffffffffff166108fc829081150290604051600060405180830381858888f19350505050158015610852573d6000803e3d6000fd5b503373ffffffffffffffffffffffffffffffffffffffff167f7084f5476618d8e60b11ef0d7d3f06914655adb8793e28ff7f018d4c76d505d5826040518082815260200191505060405180910390a250565b600181815481106108b157fe5b90600052602060002090600302016000915090508060000154908060010160009054906101000a900460ff16908060010160019054906101000a900473ffffffffffffffffffffffffffffffffffffffff16908060020154905084565b6000818154811061091b57fe5b9060005260206000209060060201600091509050806000015490806001015490806002015490806003018054600181600116156101000203166002900480601f0160208091040260200160405190810160405280929190818152602001828054600181600116156101000203166002900480156109d95780601f106109ae576101008083540402835291602001916109d9565b820191906000526020600020905b8154815290600101906020018083116109bc57829003601f168201915b505050505090806004018054600181600116156101000203166002900480601f016020809104026020016040519081016040528092919081815260200182805460018160011615610100020316600290048015610a775780601f10610a4c57610100808354040283529160200191610a77565b820191906000526020600020905b815481529060010190602001808311610a5a57829003601f168201915b505050505090806005018054600181600116156101000203166002900480601f016020809104026020016040519081016040528092919081815260200182805460018160011615610100020316600290048015610b155780601f10610aea57610100808354040283529160200191610b15565b820191906000526020600020905b815481529060010190602001808311610af857829003601f168201915b5050505050905086565b60606040518060400160405280601081526020017f564f54453a2048616c6c6f204e69636f00000000000000000000000000000000815250905090565b3373ffffffffffffffffffffffffffffffffffffffff167f2da466a7b24304f47e87fa2e1e5a81b9831ce54fec19055ce277ca2f39ba42c4346040518082815260200191505060405180910390a2565b60008080549050905090565b6001604051806080016040528086815260200185151581526020018373ffffffffffffffffffffffffffffffffffffffff16815260200184815250908060018154018082558091505090600182039060005260206000209060030201600090919290919091506000820151816000015560208201518160010160006101000a81548160ff02191690831515021790555060408201518160010160016101000a81548173ffffffffffffffffffffffffffffffffffffffff021916908373ffffffffffffffffffffffffffffffffffffffff1602179055506060820151816002015550505050505050565b828054600181600116156101000203166002900490600052602060002090601f016020900481019282601f10610ce357805160ff1916838001178555610d11565b82800160010185558215610d11579182015b82811115610d10578251825591602001919060010190610cf5565b5b509050610d1e9190610d22565b5090565b610d4491905b80821115610d40576000816000905550600101610d28565b5090565b9056fea265627a7a72315820c499f7a9132b98badd46c73b937f77fe98bf1a2c605b9a2642222878825127bb64736f6c6343000510003268747470733a2f2f6769746875622e636f6d2f76657263656c2f6e6578742e6a732f70756c6c2f31393831356669783a207765627061636b203520696e76616c696420636f6e666967206572726f72",
  "source": "pragma solidity >=0.4.22 <0.8.0;\n\ncontract Voting {\n    struct Poll {\n        uint256 id;\n        uint256 rpId;\n        uint256 pqId;\n        string pqLink;\n        string pqTitle;\n        string time;\n    }\n\n    struct Vote {\n        uint256 poll;\n        bool decision;\n        address delegate;\n        uint weight;\n    }\n\n    event Deposit(address indexed _from, uint256 indexed _id, uint256 _value);\n\n    event Deposited(address indexed payee, uint256 weiAmount);\n    event Withdrawn(address indexed payee, uint256 weiAmount);\n\n    Poll[] public polls;\n    Vote[] public votes;\n\n\n    constructor() public {\n        polls.push(\n            Poll({\n                id: 0,\n                rpId: 70107786,\n                pqId: 19815,\n                pqLink: \"https://github.com/vercel/next.js/pull/19815\",\n                pqTitle: \"fix: webpack 5 invalid config error\",\n                time: \"202012151745\"\n            })\n        );\n\n        votes.push(\n            Vote({\n                poll: 0,\n                decision: true,\n                delegate: 0x22A5206a65Aaf639C4d446F29586F0c00e0F7Fa9,\n                weight: 10\n            })\n        );\n    }\n\n    function addNewPoll(\n        uint256 _rpId,\n        uint256 _pqId,\n        string memory _pqLink,\n        string memory _pqTitle,\n        uint value,\n        address addr\n    ) public payable {\n\n        polls.push(\n            Poll({\n                id: polls.length,\n                rpId: _rpId,\n                pqId: _pqId,\n                pqLink: _pqLink,\n                pqTitle: _pqTitle,\n                time: \"202012161445\"\n            })\n        );\n\n        votes.push(\n            Vote({\n                poll: polls.length - 1,\n                decision: true,\n                delegate: addr,\n                weight: value\n            })\n        );\n    }\n\n    function vote(uint256 _pollId, bool _decision, uint value, address addr) public payable{\n        votes.push(\n            Vote({\n                poll: _pollId,\n                decision: _decision,\n                delegate: addr,\n                weight: value\n            })\n        );\n    }\n\n    function deposit() public payable {\n        emit Deposited(msg.sender, msg.value);\n    }\n\n    function withdraw() public {\n        uint256 balance = address(this).balance;\n        msg.sender.transfer(balance);\n        emit Withdrawn(msg.sender, balance);\n    }\n\n    function getBalance() public view returns (uint256) {\n        return address(this).balance;\n    }\n\n    function getVotesLength() public view returns (uint256) {\n        return votes.length;\n    }\n\n    function getPollsLength() public view returns (uint256) {\n        return polls.length;\n    }\n\n    function helloWorld() public pure returns (string memory) {\n        return \"VOTE: Hallo Nico\";\n    }\n}\n",
  "sourcePath": "/Users/michaelfrank/Documents/GitHub/github-blockchain-voting-extension/proof_of_concepts/base_blockchain_extension_interactions/contracts/Voting.sol",
  "compiler": {
    "name": "solc",
    "version": "0.5.16+commit.9c3226ce.Emscripten.clang"
  },
  "schemaVersion": "3.2.4",
  "updatedAt": "2020-12-13T14:34:26.263Z",
  "networkType": "ethereum",
  "devdoc": {
    "methods": {}
  },
  "userdoc": {
    "methods": {}
  }
}