{
  "contractName": "Voting",
  "abi": [
    {
      "inputs": [],
      "payable": false,
      "stateMutability": "nonpayable",
      "type": "constructor"
    },
    {
      "anonymous": false,
      "inputs": [
        {
          "indexed": true,
          "internalType": "address",
          "name": "_from",
          "type": "address"
        },
        {
          "indexed": true,
          "internalType": "uint256",
          "name": "_id",
          "type": "uint256"
        },
        {
          "indexed": false,
          "internalType": "uint256",
          "name": "_value",
          "type": "uint256"
        }
      ],
      "name": "Deposit",
      "type": "event"
    },
    {
      "anonymous": false,
      "inputs": [
        {
          "indexed": true,
          "internalType": "address",
          "name": "payee",
          "type": "address"
        },
        {
          "indexed": false,
          "internalType": "uint256",
          "name": "weiAmount",
          "type": "uint256"
        }
      ],
      "name": "Deposited",
      "type": "event"
    },
    {
      "anonymous": false,
      "inputs": [
        {
          "indexed": true,
          "internalType": "address",
          "name": "payee",
          "type": "address"
        },
        {
          "indexed": false,
          "internalType": "uint256",
          "name": "weiAmount",
          "type": "uint256"
        }
      ],
      "name": "Withdrawn",
      "type": "event"
    },
    {
      "constant": true,
      "inputs": [
        {
          "internalType": "uint256",
          "name": "",
          "type": "uint256"
        }
      ],
      "name": "polls",
      "outputs": [
        {
          "internalType": "uint256",
          "name": "id",
          "type": "uint256"
        },
        {
          "internalType": "uint256",
          "name": "rpId",
          "type": "uint256"
        },
        {
          "internalType": "uint256",
          "name": "pqId",
          "type": "uint256"
        },
        {
          "internalType": "string",
          "name": "pqLink",
          "type": "string"
        },
        {
          "internalType": "string",
          "name": "pqTitle",
          "type": "string"
        },
        {
          "internalType": "string",
          "name": "time",
          "type": "string"
        }
      ],
      "payable": false,
      "stateMutability": "view",
      "type": "function"
    },
    {
      "constant": true,
      "inputs": [
        {
          "internalType": "uint256",
          "name": "",
          "type": "uint256"
        }
      ],
      "name": "votes",
      "outputs": [
        {
          "internalType": "uint256",
          "name": "poll",
          "type": "uint256"
        },
        {
          "internalType": "bool",
          "name": "decision",
          "type": "bool"
        },
        {
          "internalType": "address",
          "name": "delegate",
          "type": "address"
        },
        {
          "internalType": "uint256",
          "name": "weight",
          "type": "uint256"
        }
      ],
      "payable": false,
      "stateMutability": "view",
      "type": "function"
    },
    {
      "constant": false,
      "inputs": [
        {
          "internalType": "uint256",
          "name": "_rpId",
          "type": "uint256"
        },
        {
          "internalType": "uint256",
          "name": "_pqId",
          "type": "uint256"
        },
        {
          "internalType": "string",
          "name": "_pqLink",
          "type": "string"
        },
        {
          "internalType": "string",
          "name": "_pqTitle",
          "type": "string"
        },
        {
          "internalType": "uint256",
          "name": "value",
          "type": "uint256"
        },
        {
          "internalType": "address",
          "name": "addr",
          "type": "address"
        }
      ],
      "name": "addNewPoll",
      "outputs": [],
      "payable": true,
      "stateMutability": "payable",
      "type": "function"
    },
    {
      "constant": false,
      "inputs": [],
      "name": "deposit",
      "outputs": [],
      "payable": true,
      "stateMutability": "payable",
      "type": "function"
    },
    {
      "constant": false,
      "inputs": [],
      "name": "withdraw",
      "outputs": [],
      "payable": false,
      "stateMutability": "nonpayable",
      "type": "function"
    },
    {
      "constant": true,
      "inputs": [],
      "name": "getBalance",
      "outputs": [
        {
          "internalType": "uint256",
          "name": "",
          "type": "uint256"
        }
      ],
      "payable": false,
      "stateMutability": "view",
      "type": "function"
    },
    {
      "constant": true,
      "inputs": [],
      "name": "getVotesLength",
      "outputs": [
        {
          "internalType": "uint256",
          "name": "",
          "type": "uint256"
        }
      ],
      "payable": false,
      "stateMutability": "view",
      "type": "function"
    },
    {
      "constant": true,
      "inputs": [],
      "name": "getPollsLength",
      "outputs": [
        {
          "internalType": "uint256",
          "name": "",
          "type": "uint256"
        }
      ],
      "payable": false,
      "stateMutability": "view",
      "type": "function"
    },
    {
      "constant": true,
      "inputs": [],
      "name": "helloWorld",
      "outputs": [
        {
          "internalType": "string",
          "name": "",
          "type": "string"
        }
      ],
      "payable": false,
      "stateMutability": "pure",
      "type": "function"
    }
  ],
  "bytecode": "0x608060405234801561001057600080fd5b5060006040518060c001604052806000815260200163042dc28a8152602001614d6781526020016040518060600160405280602c815260200162000f29602c9139815260200160405180606001604052806023815260200162000f556023913981526020016040518060400160405280600c81526020017f3137343531353132323032300000000000000000000000000000000000000000815250815250908060018154018082558091505090600182039060005260206000209060060201600090919290919091506000820151816000015560208201518160010155604082015181600201556060820151816003019080519060200190610113929190610251565b506080820151816004019080519060200190610130929190610251565b5060a082015181600501908051906020019061014d929190610251565b5050505060016040518060800160405280600081526020016001151581526020017322a5206a65aaf639c4d446f29586f0c00e0f7fa973ffffffffffffffffffffffffffffffffffffffff168152602001600a815250908060018154018082558091505090600182039060005260206000209060030201600090919290919091506000820151816000015560208201518160010160006101000a81548160ff02191690831515021790555060408201518160010160016101000a81548173ffffffffffffffffffffffffffffffffffffffff021916908373ffffffffffffffffffffffffffffffffffffffff160217905550606082015181600201555050506102f6565b828054600181600116156101000203166002900490600052602060002090601f016020900481019282601f1061029257805160ff19168380011785556102c0565b828001600101855582156102c0579182015b828111156102bf5782518255916020019190600101906102a4565b5b5090506102cd91906102d1565b5090565b6102f391905b808211156102ef5760008160009055506001016102d7565b5090565b90565b610c2380620003066000396000f3fe6080604052600436106100865760003560e01c80635df81330116100595780635df8133014610288578063ac2f00741461031c578063c605f76c146104bd578063d0e30db01461054d578063d4f0ca1f1461055757610086565b806312065fe01461008b5780631c895a2d146100b6578063267e6529146102465780633ccfd60b14610271575b600080fd5b34801561009757600080fd5b506100a0610582565b6040518082815260200191505060405180910390f35b610244600480360360c08110156100cc57600080fd5b810190808035906020019092919080359060200190929190803590602001906401000000008111156100fd57600080fd5b82018360208201111561010f57600080fd5b8035906020019184600183028401116401000000008311171561013157600080fd5b91908080601f016020809104026020016040519081016040528093929190818152602001838380828437600081840152601f19601f8201169050808301925050505050505091929192908035906020019064010000000081111561019457600080fd5b8201836020820111156101a657600080fd5b803590602001918460018302840111640100000000831117156101c857600080fd5b91908080601f016020809104026020016040519081016040528093929190818152602001838380828437600081840152601f19601f82011690508083019250505050505050919291929080359060200190929190803573ffffffffffffffffffffffffffffffffffffffff16906020019092919050505061058a565b005b34801561025257600080fd5b5061025b61078b565b6040518082815260200191505060405180910390f35b34801561027d57600080fd5b50610286610798565b005b34801561029457600080fd5b506102c1600480360360208110156102ab57600080fd5b8101908080359060200190929190505050610835565b60405180858152602001841515151581526020018373ffffffffffffffffffffffffffffffffffffffff1673ffffffffffffffffffffffffffffffffffffffff16815260200182815260200194505050505060405180910390f35b34801561032857600080fd5b506103556004803603602081101561033f57600080fd5b810190808035906020019092919050505061089f565b60405180878152602001868152602001858152602001806020018060200180602001848103845287818151815260200191508051906020019080838360005b838110156103af578082015181840152602081019050610394565b50505050905090810190601f1680156103dc5780820380516001836020036101000a031916815260200191505b50848103835286818151815260200191508051906020019080838360005b838110156104155780820151818401526020810190506103fa565b50505050905090810190601f1680156104425780820380516001836020036101000a031916815260200191505b50848103825285818151815260200191508051906020019080838360005b8381101561047b578082015181840152602081019050610460565b50505050905090810190601f1680156104a85780820380516001836020036101000a031916815260200191505b50995050505050505050505060405180910390f35b3480156104c957600080fd5b506104d2610ab0565b6040518080602001828103825283818151815260200191508051906020019080838360005b838110156105125780820151818401526020810190506104f7565b50505050905090810190601f16801561053f5780820380516001836020036101000a031916815260200191505b509250505060405180910390f35b610555610aed565b005b34801561056357600080fd5b5061056c610b3d565b6040518082815260200191505060405180910390f35b600047905090565b60006040518060c0016040528060008054905081526020018881526020018781526020018681526020018581526020016040518060400160405280600c81526020017f3134343531363132323032300000000000000000000000000000000000000000815250815250908060018154018082558091505090600182039060005260206000209060060201600090919290919091506000820151816000015560208201518160010155604082015181600201556060820151816003019080519060200190610658929190610b49565b506080820151816004019080519060200190610675929190610b49565b5060a0820151816005019080519060200190610692929190610b49565b505050506001604051806080016040528060016000805490500381526020016001151581526020018373ffffffffffffffffffffffffffffffffffffffff16815260200184815250908060018154018082558091505090600182039060005260206000209060030201600090919290919091506000820151816000015560208201518160010160006101000a81548160ff02191690831515021790555060408201518160010160016101000a81548173ffffffffffffffffffffffffffffffffffffffff021916908373ffffffffffffffffffffffffffffffffffffffff16021790555060608201518160020155505050505050505050565b6000600180549050905090565b60004790503373ffffffffffffffffffffffffffffffffffffffff166108fc829081150290604051600060405180830381858888f193505050501580156107e3573d6000803e3d6000fd5b503373ffffffffffffffffffffffffffffffffffffffff167f7084f5476618d8e60b11ef0d7d3f06914655adb8793e28ff7f018d4c76d505d5826040518082815260200191505060405180910390a250565b6001818154811061084257fe5b90600052602060002090600302016000915090508060000154908060010160009054906101000a900460ff16908060010160019054906101000a900473ffffffffffffffffffffffffffffffffffffffff16908060020154905084565b600081815481106108ac57fe5b9060005260206000209060060201600091509050806000015490806001015490806002015490806003018054600181600116156101000203166002900480601f01602080910402602001604051908101604052809291908181526020018280546001816001161561010002031660029004801561096a5780601f1061093f5761010080835404028352916020019161096a565b820191906000526020600020905b81548152906001019060200180831161094d57829003601f168201915b505050505090806004018054600181600116156101000203166002900480601f016020809104026020016040519081016040528092919081815260200182805460018160011615610100020316600290048015610a085780601f106109dd57610100808354040283529160200191610a08565b820191906000526020600020905b8154815290600101906020018083116109eb57829003601f168201915b505050505090806005018054600181600116156101000203166002900480601f016020809104026020016040519081016040528092919081815260200182805460018160011615610100020316600290048015610aa65780601f10610a7b57610100808354040283529160200191610aa6565b820191906000526020600020905b815481529060010190602001808311610a8957829003601f168201915b5050505050905086565b60606040518060400160405280601081526020017f564f54453a2048616c6c6f204e69636f00000000000000000000000000000000815250905090565b3373ffffffffffffffffffffffffffffffffffffffff167f2da466a7b24304f47e87fa2e1e5a81b9831ce54fec19055ce277ca2f39ba42c4346040518082815260200191505060405180910390a2565b60008080549050905090565b828054600181600116156101000203166002900490600052602060002090601f016020900481019282601f10610b8a57805160ff1916838001178555610bb8565b82800160010185558215610bb8579182015b82811115610bb7578251825591602001919060010190610b9c565b5b509050610bc59190610bc9565b5090565b610beb91905b80821115610be7576000816000905550600101610bcf565b5090565b9056fea265627a7a72315820ad5593d6a8e3969a5fd4d7c07bf5f04dd04bfa434640f42d3c77ba92e211509964736f6c6343000510003268747470733a2f2f6769746875622e636f6d2f76657263656c2f6e6578742e6a732f70756c6c2f31393831356669783a207765627061636b203520696e76616c696420636f6e666967206572726f72",
  "source": "pragma solidity >=0.4.22 <0.8.0;\n\ncontract Voting {\n    struct Poll {\n        uint256 id;\n        uint256 rpId;\n        uint256 pqId;\n        string pqLink;\n        string pqTitle;\n        string time;\n    }\n\n    struct Vote {\n        uint256 poll;\n        bool decision;\n        address delegate;\n        uint weight;\n    }\n\n    event Deposit(address indexed _from, uint256 indexed _id, uint256 _value);\n\n    event Deposited(address indexed payee, uint256 weiAmount);\n    event Withdrawn(address indexed payee, uint256 weiAmount);\n\n    Poll[] public polls;\n    Vote[] public votes;\n\n\n    constructor() public {\n        polls.push(\n            Poll({\n                id: 0,\n                rpId: 70107786,\n                pqId: 19815,\n                pqLink: \"https://github.com/vercel/next.js/pull/19815\",\n                pqTitle: \"fix: webpack 5 invalid config error\",\n                time: \"174515122020\"\n            })\n        );\n\n        votes.push(\n            Vote({\n                poll: 0,\n                decision: true,\n                delegate: 0x22A5206a65Aaf639C4d446F29586F0c00e0F7Fa9,\n                weight: 10\n            })\n        );\n    }\n\n    function addNewPoll(\n        uint256 _rpId,\n        uint256 _pqId,\n        string memory _pqLink,\n        string memory _pqTitle,\n        uint value,\n        address addr\n    ) public payable {\n\n        polls.push(\n            Poll({\n                id: polls.length,\n                rpId: _rpId,\n                pqId: _pqId,\n                pqLink: _pqLink,\n                pqTitle: _pqTitle,\n                time: \"144516122020\"\n            })\n        );\n\n        votes.push(\n            Vote({\n                poll: polls.length - 1,\n                decision: true,\n                delegate: addr,\n                weight: value\n            })\n        );\n    }\n\n    function deposit() public payable {\n        emit Deposited(msg.sender, msg.value);\n    }\n\n    function withdraw() public {\n        uint256 balance = address(this).balance;\n        msg.sender.transfer(balance);\n        emit Withdrawn(msg.sender, balance);\n    }\n\n    function getBalance() public view returns (uint256) {\n        return address(this).balance;\n    }\n\n    function getVotesLength() public view returns (uint256) {\n        return votes.length;\n    }\n\n    function getPollsLength() public view returns (uint256) {\n        return polls.length;\n    }\n\n    function helloWorld() public pure returns (string memory) {\n        return \"VOTE: Hallo Nico\";\n    }\n}\n",
  "sourcePath": "/Users/michaelfrank/Documents/GitHub/github-blockchain-voting-extension/proof_of_concepts/base_blockchain_extension_interactions/contracts/Voting.sol",
  "compiler": {
    "name": "solc",
    "version": "0.5.16+commit.9c3226ce.Emscripten.clang"
  },
  "schemaVersion": "3.2.4",
  "updatedAt": "2020-12-12T19:38:30.836Z",
  "networkType": "ethereum",
  "devdoc": {
    "methods": {}
  },
  "userdoc": {
    "methods": {}
  }
}