{
  "contractName": "Voting",
  "abi": [
    {
      "inputs": [],
      "payable": false,
      "stateMutability": "nonpayable",
      "type": "constructor"
    },
    {
      "constant": true,
      "inputs": [
        {
          "internalType": "uint256",
          "name": "",
          "type": "uint256"
        }
      ],
      "name": "polls",
      "outputs": [
        {
          "internalType": "uint256",
          "name": "rpId",
          "type": "uint256"
        },
        {
          "internalType": "uint256",
          "name": "pqId",
          "type": "uint256"
        },
        {
          "internalType": "string",
          "name": "pqLink",
          "type": "string"
        },
        {
          "internalType": "string",
          "name": "pqTitle",
          "type": "string"
        },
        {
          "internalType": "uint256",
          "name": "proVotes",
          "type": "uint256"
        },
        {
          "internalType": "uint256",
          "name": "contraVotes",
          "type": "uint256"
        },
        {
          "internalType": "string",
          "name": "time",
          "type": "string"
        }
      ],
      "payable": false,
      "stateMutability": "view",
      "type": "function"
    },
    {
      "constant": false,
      "inputs": [
        {
          "internalType": "uint256",
          "name": "_rpId",
          "type": "uint256"
        },
        {
          "internalType": "uint256",
          "name": "_pqId",
          "type": "uint256"
        },
        {
          "internalType": "string",
          "name": "_pqLink",
          "type": "string"
        },
        {
          "internalType": "string",
          "name": "_pqTitle",
          "type": "string"
        }
      ],
      "name": "addNewPoll",
      "outputs": [],
      "payable": false,
      "stateMutability": "nonpayable",
      "type": "function"
    },
    {
      "constant": true,
      "inputs": [],
      "name": "getPollsLength",
      "outputs": [
        {
          "internalType": "uint256",
          "name": "",
          "type": "uint256"
        }
      ],
      "payable": false,
      "stateMutability": "view",
      "type": "function"
    },
    {
      "constant": true,
      "inputs": [],
      "name": "helloWorld",
      "outputs": [
        {
          "internalType": "string",
          "name": "",
          "type": "string"
        }
      ],
      "payable": false,
      "stateMutability": "pure",
      "type": "function"
    }
  ],
  "bytecode": "0x60806040523480156200001157600080fd5b5060006040518060e0016040528063042dc28a8152602001614d6781526020016040518060600160405280602c815260200162000e16602c9139815260200160405180606001604052806023815260200162000ece60239139815260200160008152602001600081526020016040518060400160405280600c81526020017f31373435313531323230323000000000000000000000000000000000000000008152508152509080600181540180825580915050906001820390600052602060002090600702016000909192909190915060008201518160000155602082015181600101556040820151816002019080519060200190620001139291906200041d565b506060820151816003019080519060200190620001329291906200041d565b506080820151816004015560a0820151816005015560c0820151816006019080519060200190620001659291906200041d565b5050505060006040518060e0016040528063042dc28a8152602001614d6081526020016040518060600160405280602c815260200162000ea2602c913981526020016040518060600160405280602b815260200162000e77602b9139815260200160008152602001600081526020016040518060400160405280600c81526020017f313234353136313232303230000000000000000000000000000000000000000081525081525090806001815401808255809150509060018203906000526020600020906007020160009091929091909150600082015181600001556020820151816001015560408201518160020190805190602001906200026a9291906200041d565b506060820151816003019080519060200190620002899291906200041d565b506080820151816004015560a0820151816005015560c0820151816006019080519060200190620002bc9291906200041d565b5050505060006040518060e0016040528063042dc28a8152602001614d5f81526020016040518060600160405280602c815260200162000ef1602c9139815260200160405180606001604052806035815260200162000e4260359139815260200160008152602001600081526020016040518060400160405280600c81526020017f31343435313631323230323000000000000000000000000000000000000000008152508152509080600181540180825580915050906001820390600052602060002090600702016000909192909190915060008201518160000155602082015181600101556040820151816002019080519060200190620003c19291906200041d565b506060820151816003019080519060200190620003e09291906200041d565b506080820151816004015560a0820151816005015560c0820151816006019080519060200190620004139291906200041d565b50505050620004cc565b828054600181600116156101000203166002900490600052602060002090601f016020900481019282601f106200046057805160ff191683800117855562000491565b8280016001018555821562000491579182015b828111156200049057825182559160200191906001019062000473565b5b509050620004a09190620004a4565b5090565b620004c991905b80821115620004c5576000816000905550600101620004ab565b5090565b90565b61093a80620004dc6000396000f3fe608060405234801561001057600080fd5b506004361061004c5760003560e01c806382874e4414610051578063ac2f0074146101b7578063c605f76c14610352578063d4f0ca1f146103d5575b600080fd5b6101b56004803603608081101561006757600080fd5b8101908080359060200190929190803590602001909291908035906020019064010000000081111561009857600080fd5b8201836020820111156100aa57600080fd5b803590602001918460018302840111640100000000831117156100cc57600080fd5b91908080601f016020809104026020016040519081016040528093929190818152602001838380828437600081840152601f19601f8201169050808301925050505050505091929192908035906020019064010000000081111561012f57600080fd5b82018360208201111561014157600080fd5b8035906020019184600183028401116401000000008311171561016357600080fd5b91908080601f016020809104026020016040519081016040528093929190818152602001838380828437600081840152601f19601f8201169050808301925050505050505091929192905050506103f3565b005b6101e3600480360360208110156101cd57600080fd5b8101908080359060200190929190505050610600565b60405180888152602001878152602001806020018060200186815260200185815260200180602001848103845289818151815260200191508051906020019080838360005b83811015610243578082015181840152602081019050610228565b50505050905090810190601f1680156102705780820380516001836020036101000a031916815260200191505b50848103835288818151815260200191508051906020019080838360005b838110156102a957808201518184015260208101905061028e565b50505050905090810190601f1680156102d65780820380516001836020036101000a031916815260200191505b50848103825285818151815260200191508051906020019080838360005b8381101561030f5780820151818401526020810190506102f4565b50505050905090810190601f16801561033c5780820380516001836020036101000a031916815260200191505b509a505050505050505050505060405180910390f35b61035a610817565b6040518080602001828103825283818151815260200191508051906020019080838360005b8381101561039a57808201518184015260208101905061037f565b50505050905090810190601f1680156103c75780820380516001836020036101000a031916815260200191505b509250505060405180910390f35b6103dd610854565b6040518082815260200191505060405180910390f35b600082511161046a576040517f08c379a000000000000000000000000000000000000000000000000000000000815260040180806020018281038252601e8152602001807f546865206c696e6b206e6565647320746f2062652070726f76696465642e000081525060200191505060405180910390fd5b60008151116104e1576040517f08c379a000000000000000000000000000000000000000000000000000000000815260040180806020018281038252601f8152602001807f546865207469746c65206e6565647320746f2062652070726f76696465642e0081525060200191505060405180910390fd5b60006040518060e0016040528086815260200185815260200184815260200183815260200160008152602001600081526020016040518060400160405280600c81526020017f313434353136313232303230000000000000000000000000000000000000000081525081525090806001815401808255809150509060018203906000526020600020906007020160009091929091909150600082015181600001556020820151816001015560408201518160020190805190602001906105a8929190610860565b5060608201518160030190805190602001906105c5929190610860565b506080820151816004015560a0820151816005015560c08201518160060190805190602001906105f6929190610860565b5050505050505050565b6000818154811061060d57fe5b9060005260206000209060070201600091509050806000015490806001015490806002018054600181600116156101000203166002900480601f0160208091040260200160405190810160405280929190818152602001828054600181600116156101000203166002900480156106c55780601f1061069a576101008083540402835291602001916106c5565b820191906000526020600020905b8154815290600101906020018083116106a857829003601f168201915b505050505090806003018054600181600116156101000203166002900480601f0160208091040260200160405190810160405280929190818152602001828054600181600116156101000203166002900480156107635780601f1061073857610100808354040283529160200191610763565b820191906000526020600020905b81548152906001019060200180831161074657829003601f168201915b505050505090806004015490806005015490806006018054600181600116156101000203166002900480601f01602080910402602001604051908101604052809291908181526020018280546001816001161561010002031660029004801561080d5780601f106107e25761010080835404028352916020019161080d565b820191906000526020600020905b8154815290600101906020018083116107f057829003601f168201915b5050505050905087565b60606040518060400160405280601081526020017f564f54453a2048616c6c6f204e69636f00000000000000000000000000000000815250905090565b60008080549050905090565b828054600181600116156101000203166002900490600052602060002090601f016020900481019282601f106108a157805160ff19168380011785556108cf565b828001600101855582156108cf579182015b828111156108ce5782518255916020019190600101906108b3565b5b5090506108dc91906108e0565b5090565b61090291905b808211156108fe5760008160009055506001016108e6565b5090565b9056fea265627a7a7231582051483947e1ca96aafe71e7e96137aa34083a5fee650c21f8c21b38acbd0b399864736f6c6343000510003268747470733a2f2f6769746875622e636f6d2f76657263656c2f6e6578742e6a732f70756c6c2f3139383135776974682d66616365626f6f6b2d706978656c3a2072656d6f7665207061636b61676520616e642075706461746520726561646d65556e69667920696e7374616c6c6174696f6e207363726970747320666f72206578616d706c65206170707368747470733a2f2f6769746875622e636f6d2f76657263656c2f6e6578742e6a732f70756c6c2f31393830386669783a207765627061636b203520696e76616c696420636f6e666967206572726f7268747470733a2f2f6769746875622e636f6d2f76657263656c2f6e6578742e6a732f70756c6c2f3139383037",
  "source": "pragma solidity >=0.4.22 <0.8.0;\n\ncontract Voting {\n    struct Poll {\n        uint256 rpId;\n        uint256 pqId;\n        string pqLink;\n        string pqTitle;\n        uint256 proVotes;\n        uint256 contraVotes;\n        string time;\n    }\n\n    Poll[] public polls;\n\n    constructor() public {\n        polls.push(\n            Poll({\n                rpId: 70107786,\n                pqId: 19815,\n                pqLink: \"https://github.com/vercel/next.js/pull/19815\",\n                pqTitle: \"fix: webpack 5 invalid config error\",\n                proVotes: 0,\n                contraVotes: 0,\n                time: \"174515122020\"\n            })\n        );\n        polls.push(\n            Poll({\n                rpId: 70107786,\n                pqId: 19808,\n                pqLink: \"https://github.com/vercel/next.js/pull/19808\",\n                pqTitle: \"Unify installation scripts for example apps\",\n                proVotes: 0,\n                contraVotes: 0,\n                time: \"124516122020\"\n            })\n        );\n        polls.push(\n            Poll({\n                rpId: 70107786,\n                pqId: 19807,\n                pqLink: \"https://github.com/vercel/next.js/pull/19807\",\n                pqTitle: \"with-facebook-pixel: remove package and update readme\",\n                proVotes: 0,\n                contraVotes: 0,\n                time: \"144516122020\"\n            })\n        );\n    }\n\n    function addNewPoll(\n        uint256 _rpId,\n        uint256 _pqId,\n        string memory _pqLink,\n        string memory _pqTitle\n    ) public {\n        require(bytes(_pqLink).length > 0, \"The link needs to be provided.\");\n        require(bytes(_pqTitle).length > 0, \"The title needs to be provided.\");\n\n        polls.push(\n            Poll({\n                rpId: _rpId,\n                pqId: _pqId,\n                pqLink: _pqLink,\n                pqTitle: _pqTitle,\n                proVotes: 0,\n                contraVotes: 0,\n                time: \"144516122020\"\n            })\n        );\n    }\n\n    function getPollsLength() public view returns (uint256) {\n        return polls.length;\n    }\n\n    function helloWorld() public pure returns (string memory) {\n        return \"VOTE: Hallo Nico\";\n    }\n}\n",
  "sourcePath": "/Users/michaelfrank/Documents/GitHub/github-blockchain-voting-extension/proof_of_concepts/base_blockchain_extension_interactions/contracts/Voting.sol",
  "compiler": {
    "name": "solc",
    "version": "0.5.16+commit.9c3226ce.Emscripten.clang"
  },
  "schemaVersion": "3.2.4",
  "updatedAt": "2020-12-04T17:45:01.463Z",
  "networkType": "ethereum",
  "devdoc": {
    "methods": {}
  },
  "userdoc": {
    "methods": {}
  }
}